S01D000044454C4849204D4554524F207573696E67204156522E73726563AB
S11300000C942A000C9447000C9447000C9447006D
S11300100C9447000C9447000C9447000C94470040
S11300200C9447000C9447000C9447000C94470030
S11300300C9447000C9447000C9447000C94470020
S11300400C9447000C9447000C9447000C94470010
S11300500C94470011241FBECFE5D4E0DEBFCDBF12
S113006013E0A0E6B0E0E4EEF4E102C005900D92E6
S1130070A632B107D9F713E0A6E2B3E001C01D929E
S1130080A632B107E1F70E947D000C94700A0C942B
S1130090000082BB85B38C7F85BBAA9A81EE94E075
S11300A00197F1F700C00000AA9881EE94E001974F
S11300B0F1F700C00000089582BBA89AA998AA9AF3
S11300C081EE94E00197F1F700C00000AA9881EE58
S11300D094E00197F1F700C000000895CF93DF93F7
S11300E0EC018881882331F021960E945C0089917B
S11300F08823D9F7DF91CF9108958FEF81BB84BB1B
S11301008ABB87BB88BB85B3886F85BB88E30E94A5
S113011049008CE00E94490080E80E94490080E682
S113012090E00E946E0080EC0E94490081E790E01C
S11301300E946E008FEB97E2A9E081509040A040AE
S1130140E1F700C0000081E00E9449000F2EF2E8B0
S11301506F2EF0E07F2EF02D0F2EF5E94F2EF0E0FC
S11301605F2EF02D08EA10E0CCEBD0E00F2EF0ED7E
S11301702F2EF0E03F2EF02D0F2EF4EEEF2EF0E0B8
S1130180FF2EF02D0F2EFCE1CF2EF1E0DF2EF02D0F
S11301900F2EF0E3AF2EF1E0BF2EF02DC09880E8D3
S11301A00E944900C3010E946E0080EC0E94490035
S11301B0C2010E946E008FEB97E2A9E0815090404B
S11301C0A040E1F700C00000AB988FED93E9A4E0F4
S11301D081509040A040E1F700C00000AB9A80E855
S11301E00E944900C8010E946E0080EC0E944900F0
S11301F0CE010E946E008FE79AE1A6E08150904004
S1130200A040E1F700C000008BB380668BBBDC9894
S11302108FEB97E2A9E081509040A040E1F700C045
S113022000001BBA8FEF94E3ACE081509040A040F3
S1130230E1F700C00000AB988FED93E9A4E0815092
S11302409040A040E1F700C00000AB9A80E80E9413
S11302504900C1010E946E0080EC0E944900CE0159
S11302600E946E00DC9ADD98DE98DF9A8FEB97E2AD
S1130270A9E081509040A040E1F700C000001BBA03
S11302808FE79AE1A6E081509040A040E1F700C0DA
S1130290000081E00E944900D89AD998DA9ADB9844
S11302A08FE79AE1A6E081509040A040E1F700C0BA
S11302B0000080E80E944900C7010E946E0080ECA3
S11302C00E94490086EF90E00E946E008FEF99E64D
S11302D0A8E181509040A040E1F700C0000081E017
S11302E00E9449001BBA8FE79AE1A6E08150904032
S11302F0A040E1F700C00000C19880E80E944900D6
S113030088E091E00E946E0080EC0E944900C601E2
S11303100E946E008FEB97E2A9E081509040A040CC
S1130320E1F700C00000AB988FED93E9A4E08150A1
S11303309040A040E1F700C00000AB9A80E80E9422
S11303404900C8010E946E0080EC0E944900CE0161
S11303500E946E008FE79AE1A6E081509040A04091
S1130360E1F700C000008BB380668BBBDC988FEB99
S113037097E2A9E081509040A040E1F700C000005E
S11303801BBA8FEF94E3ACE081509040A040E1F7BA
S113039000C00000AB988FED93E9A4E08150904039
S11303A0A040E1F700C00000AB9A80E80E94490039
S11303B0C5010E946E0080EC0E944900CE010E949B
S11303C06E008BB380698BBB8BB38F798BBB8FEB48
S11303D097E2A9E081509040A040E1F700C00000FE
S11303E01BBA8FE39DE0A3E081509040A040E1F769
S11303F000C0000081E00E944900D89AD998DA9A96
S1130400DB988FE79AE1A6E081509040A040E1F7A5
S113041000C0000080E80E944900C7010E946E00ED
S113042080EC0E94490085E491E00E946E008FEF09
S113043099E6A8E181509040A040E1F700C0000097
S113044081E00E9449001BBA8FE79AE1A6E081503F
S11304509040A040E1F700C00000C29880E80E94EC
S1130460490087E591E00E946E0080EC0E944900FB
S1130470C6010E946E008FEB97E2A9E08150904084
S1130480A040E1F700C00000AB988FED93E9A4E031
S113049081509040A040E1F700C00000AB9A80E892
S11304A00E944900C8010E946E0080EC0E9449002D
S11304B0CE010E946E008FE79AE1A6E08150904041
S11304C0A040E1F700C000008BB380668BBBDC98D2
S11304D08FEB97E2A9E081509040A040E1F700C083
S11304E000001BBA8FEF94E3ACE081509040A04031
S11304F0E1F700C00000AB988FED93E9A4E08150D0
S11305009040A040E1F700C00000AB9A80E80E9450
S11305104900C5010E946E0080EC0E944900CE0192
S11305200E946E008BB380698BBB8BB38F798BBBBE
S11305308FEB97E2A9E081509040A040E1F700C022
S113054000001BBA8FE39DE0A3E081509040A040DF
S1130550E1F700C0000081E00E944900D89AD998D0
S1130560DA9ADB988FE79AE1A6E081509040A040A8
S1130570E1F700C0000080E80E944900C7010E9422
S11305806E0080EC0E9449008BE691E00E946E00B0
S11305908FEF99E6A8E181509040A040E1F700C0B8
S11305A0000081E00E9449001BBA8FE79AE1A6E0AF
S11305B081509040A040E1F700C00000C39880E85B
S11305C00E9449008DE791E00E946E0080EC0E9439
S11305D04900C6010E946E008FEB97E2A9E08150AA
S11305E09040A040E1F700C00000AB988FED93E984
S11305F0A4E081509040A040E1F700C00000AB9A15
S113060080E80E944900C8010E946E0080EC0E94AC
S11306104900CE010E946E008FE79AE1A6E0815066
S11306209040A040E1F700C000008BB380668BBB14
S1130630DC988FEB97E2A9E081509040A040E1F76D
S113064000C000001BBA8FEF94E3ACE081509040EF
S1130650A040E1F700C00000AB988FED93E9A4E05F
S113066081509040A040E1F700C00000AB9A80E8C0
S11306700E944900C5010E946E0080EC0E9449005E
S1130680CE010E946E008BB380698BBB8BB38F79D4
S11306908BBB8FEB97E2A9E081509040A040E1F73B
S11306A000C000001BBA8FE39DE0A3E0815090409E
S11306B0A040E1F700C0000081E00E944900D89A00
S11306C0D998DA9ADB988FE79AE1A6E081509040B6
S11306D0A040E1F700C0000080E80E944900C70183
S11306E00E946E0080EC0E94490081E991E00E9422
S11306F06E008FEF99E6A8E181509040A040E1F7A9
S113070000C0000081E00E9449001BBA8FE79AE113
S1130710A6E081509040A040E1F700C00000C498DA
S113072080E80E94490083EA91E00E946E0080EC18
S11307300E944900C6010E946E008FEB97E2A9E077
S113074081509040A040E1F700C00000AB988FEDCD
S113075093E9A4E081509040A040E1F700C000007C
S1130760AB9A80E80E944900C8010E946E0080ECA8
S11307700E944900CE010E946E008FE79AE1A6E034
S113078081509040A040E1F700C000008BB3806628
S11307908BBBDC988FEB97E2A9E081509040A0409E
S11307A0E1F700C000001BBA8FEF94E3ACE0815086
S11307B09040A040E1F700C00000AB988FED93E9B2
S11307C0A4E081509040A040E1F700C00000AB9A43
S11307D080E80E944900C5010E946E0080EC0E94DE
S11307E04900CE010E946E008BB380698BBB8BB332
S11307F08F798BBB8FEB97E2A9E081509040A040AA
S1130800E1F700C000001BBA8FE39DE0A3E0815034
S11308109040A040E1F700C0000081E00E94490040
S1130820D89AD998DA9ADB988FE79AE1A6E08150B2
S11308309040A040E1F700C0000080E80E94490019
S1130840C7010E946E0080EC0E94490087EB91E092
S11308500E946E008FEF99E6A8E181509040A0407D
S1130860E1F700C0000081E00E9449001BBA8FE755
S11308709AE1A6E081509040A040E1F700C000005A
S1130880C59880E80E94490089EC91E00E946E00BE
S113089080EC0E944900C6010E946E008FEB97E233
S11308A0A9E081509040A040E1F700C00000AB985F
S11308B08FED93E9A4E081509040A040E1F700C09F
S11308C00000AB9A80E80E944900C8010E946E00B3
S11308D080EC0E944900CE010E946E008FE79AE1ED
S11308E0A6E081509040A040E1F700C000008BB327
S11308F080668BBBDC988FEB97E2A9E08150904037
S1130900A040E1F700C000001BBA8FEF94E3ACE015
S113091081509040A040E1F700C00000AB988FEDFB
S113092093E9A4E081509040A040E1F700C00000AA
S1130930AB9A80E80E944900C5010E946E0080ECD9
S11309400E944900CE010E946E008BB380698BBB6C
S11309508BB38F798BBB8FEB97E2A9E081509040EA
S1130960A040E1F700C000001BBA8FE39DE0A3E0C4
S113097081509040A040E1F700C0000081E00E9457
S11309804900D89AD998DA9ADB988FE79AE1A6E0D9
S113099081509040A040E1F700C0000080E80E9430
S11309A04900C7010E946E0080EC0E9449008DED51
S11309B091E00E946E008FEF99E6A8E1815090408B
S11309C0A040E1F700C0000081E00E9449001BBA8A
S11309D08FE79AE1A6E081509040A040E1F700C083
S11309E00000C69880E80E9449008FEE91E00E94C2
S11309F06E0080EC0E944900C6010E946E008FEBDD
S1130A0097E2A9E081509040A040E1F700C00000C7
S1130A10AB988FED93E9A4E081509040A040E1F7BA
S1130A2000C00000AB9A80E80E944900C8010E94FF
S1130A306E0080EC0E944900CE010E946E008FE798
S1130A409AE1A6E081509040A040E1F700C0000088
S1130A508BB380668BBBDC988FEB97E2A9E0815067
S1130A609040A040E1F700C000001BBA8FEF94E370
S1130A70ACE081509040A040E1F700C00000AB988A
S1130A808FED93E9A4E081509040A040E1F700C0CD
S1130A900000AB9A80E80E944900C5010E946E00E4
S1130AA080EC0E944900CE010E946E008BB38069E5
S1130AB08BBB8BB38F798BBB8FEB97E2A9E0815013
S1130AC09040A040E1F700C000001BBA8FE39DE016
S1130AD0A3E081509040A040E1F700C0000081E015
S1130AE00E944900D89AD998DA9ADB988FE79AE15C
S1130AF0A6E081509040A040E1F700C0000080E8EB
S1130B000E944900C7010E946E0080EC0E944900C7
S1130B1083E092E00E946E008FEF99E6A8E1815095
S1130B209040A040E1F700C0000081E00E9449002D
S1130B301BBA8FE79AE1A6E081509040A040E1F70C
S1130B4000C00000C79880E80E94490086E192E056
S1130B500E946E0080EC0E944900C6010E946E0053
S1130B608FEB97E2A9E081509040A040E1F700C0EC
S1130B700000AB988FED93E9A4E081509040A04031
S1130B80E1F700C00000AB9A8FED93E9A4E0815037
S1130B909040A040E1F700C0000080E80E944900B6
S1130BA0C8010E946E0080EC0E944900CE010E94A0
S1130BB06E008FE79AE1A6E081509040A040E1F7F3
S1130BC000C000008BB380668BBBDC988FEB97E290
S1130BD0A9E081509040A040E1F700C000001BBA9A
S1130BE08FEF94E3ACE081509040A040E1F700C067
S1130BF00000AB988FED93E9A4E081509040A040B1
S1130C00E1F700C00000AB9A80E80E944900C501EA
S1130C100E946E0080EC0E944900CE010E946E008A
S1130C208BB380698BBB8BB38F798BBB8FEB97E2D4
S1130C30A9E081509040A040E1F700C000001BBA39
S1130C408FE39DE0A3E081509040A040E1F700C015
S1130C50000081E00E944900D89AD998DA9ADB987A
S1130C608FE79AE1A6E081509040A040E1F700C0F0
S1130C70000080E80E944900C7010E946E0080ECD9
S1130C800E9449008AE292E00E946E008FEF99E68A
S1130C90A8E181509040A040E1F700C0000081E04D
S1130CA00E9449001BBA8FE79AE1A6E08150904068
S1130CB0A040E1F700C00000AC9880E80E94490021
S1130CC08CE392E00E946E0080EC0E944900C60111
S1130CD00E946E008FEB97E2A9E081509040A04003
S1130CE0E1F700C00000AB988FED93E9A4E08150D8
S1130CF09040A040E1F700C00000AB9A80E80E9459
S1130D004900C8010E946E0080EC0E944900CE0197
S1130D100E946E008FE79AE1A6E081509040A040C7
S1130D20E1F700C000008BB380668BBBDC988FEBCF
S1130D3097E2A9E081509040A040E1F700C0000094
S1130D401BBA8FEF94E3ACE081509040A040E1F7F0
S1130D5000C00000AB988FED93E9A4E0815090406F
S1130D60A040E1F700C00000AB9A80E80E9449006F
S1130D70C5010E946E0080EC0E944900CE010E94D1
S1130D806E008BB380698BBB8BB38F798BBB8FEB7E
S1130D9097E2A9E081509040A040E1F700C0000034
S1130DA01BBA8FE39DE0A3E081509040A040E1F79F
S1130DB000C0000081E00E944900D89AD998DA9ACC
S1130DC0DB988FE79AE1A6E081509040A040E1F7DC
S1130DD000C0000080E80E944900C7010E946E0024
S1130DE080EC0E94490080E592E00E946E008FEF43
S1130DF099E6A8E181509040A040E1F700C00000CE
S1130E0081E00E9449001BBA8FE79AE1A6E0815075
S1130E109040A040E1F700C00000AD9880E80E9437
S1130E20490082E692E00E946E0080EC0E94490034
S1130E30C6010E946E008FEB97E2A9E081509040BA
S1130E40A040E1F700C00000AB988FED93E9A4E067
S1130E5081509040A040E1F700C00000AB9A80E8C8
S1130E600E944900C8010E946E0080EC0E94490063
S1130E70CE010E946E008FE79AE1A6E08150904077
S1130E80A040E1F700C000008BB380668BBBDC9808
S1130E908FEB97E2A9E081509040A040E1F700C0B9
S1130EA000001BBA8FEF94E3ACE081509040A04067
S1130EB0E1F700C00000AB988FED93E9A4E0815006
S1130EC09040A040E1F700C00000AB9A80E80E9487
S1130ED04900C5010E946E0080EC0E944900CE01C9
S1130EE00E946E008BB380698BBB8BB38F798BBBF5
S1130EF08FEB97E2A9E081509040A040E1F700C059
S1130F0000001BBA8FE39DE0A3E081509040A04015
S1130F10E1F700C0000081E00E944900D89AD99806
S1130F20DA9ADB988FE79AE1A6E081509040A040DE
S1130F30E1F700C0000080E80E944900C7010E9458
S1130F406E0080EC0E94490086E792E00E946E00E9
S1130F508FEF99E6A8E181509040A040E1F700C0EE
S1130F60000081E00E9449001BBA8FE79AE1A6E0E5
S1130F7081509040A040E1F700C00000AE9880E8A6
S1130F800E94490087E892E00E946E0080EC0E9473
S1130F904900C6010E946E008FEB97E2A9E08150E0
S1130FA09040A040E1F700C00000AB988FED93E9BA
S1130FB0A4E081509040A040E1F700C00000AB9A4B
S1130FC080E80E944900C8010E946E0080EC0E94E3
S1130FD04900CE010E946E008FE79AE1A6E081509D
S1130FE09040A040E1F700C000008BB380668BBB4B
S1130FF0DC988FEB97E2A9E081509040A040E1F7A4
S113100000C000001BBA8FEF94E3ACE08150904025
S1131010A040E1F700C00000AB988FED93E9A4E095
S113102081509040A040E1F700C00000AB9A80E8F6
S11310300E944900C5010E946E0080EC0E94490094
S1131040CE010E946E008BB380698BBB8BB38F790A
S11310508BBB8FEB97E2A9E081509040A040E1F771
S113106000C000001BBA8FE39DE0A3E081509040D4
S1131070A040E1F700C0000081E00E944900D89A36
S1131080D998DA9ADB988FE79AE1A6E081509040EC
S1131090A040E1F700C0000080E80E944900C701B9
S11310A00E946E0080EC0E9449008BE992E00E944D
S11310B06E008FEF99E6A8E181509040A040E1F7DF
S11310C000C0000081E00E9449001BBA8FE79AE14A
S11310D0A6E081509040A040E1F700C00000AF9826
S11310E080E80E9449008DEA92E00E946E0080EC44
S11310F00E944900C6010E946E008FEB97E2A9E0AE
S113110081509040A040E1F700C00000AB988FED03
S113111093E9A4E081509040A040E1F700C00000B2
S1131120AB9A80E80E944900C8010E946E0080ECDE
S11311300E944900CE010E946E008FE79AE1A6E06A
S113114081509040A040E1F700C000008BB380665E
S11311508BBBDC988FEB97E2A9E081509040A040D4
S1131160E1F700C000001BBA8FEF94E3ACE08150BC
S11311709040A040E1F700C00000AB988FED93E9E8
S1131180A4E081509040A040E1F700C00000AB9A79
S113119080E80E944900C5010E946E0080EC0E9414
S11311A04900CE010E946E008BB380698BBB8BB368
S11311B08F798BBB8FEB97E2A9E081509040A040E0
S11311C0E1F700C000001BBA8FE39DE0A3E081506B
S11311D09040A040E1F700C0000081E00E94490077
S11311E0D89AD998DA9ADB988FE79AE1A6E08150E9
S11311F09040A040E1F700C0000080E80E94490050
S1131200C7010E946E0080EC0E94490081EC92E0CC
S11312100E946E008FEF99E6A8E181509040A040B3
S1131220E1F700C0000081E00E9449001BBA8FE78B
S11312309AE1A6E081509040A040E1F700C0000090
S113124080E80E94490083ED92E00E946E0080ECE9
S11312500E944900C6010E946E008FEB97E2A9E04C
S113126081509040A040E1F700C00000AB988FEDA2
S113127093E9A4E081509040A040E1F700C0000051
S1131280AB9A80E80E944900C8010E946E0080EC7D
S11312900E944900CE010E946E008FE79AE1A6E009
S11312A081509040A040E1F700C000008BB38066FD
S11312B08BBBDC988FEB97E2A9E081509040A04073
S11312C0E1F700C000001BBA8FEF94E3ACE081505B
S11312D09040A040E1F700C00000AB988FED93E987
S11312E0A4E081509040A040E1F700C00000AB9A18
S11312F080E80E944900C5010E946E0080EC0E94B3
S11313004900CE010E946E008BB380698BBB8BB306
S11313108F798BBB8FEB97E2A9E081509040A0407E
S1131320E1F700C000001BBA8FE39DE0A3E0815009
S11313309040A040E1F700C0000081E00E94490015
S1131340D89AD998DA9ADB988FE79AE1A6E0815087
S11313509040A040E1F700C0000080E80E944900EE
S1131360C7010E946E0080EC0E94490087EE92E063
S11313700E946E008FEF99E6A8E181509040A04052
S1131380E1F700C0000081E00E9449001BBA8FE72A
S11313909AE1A6E081509040A040E1F700C000002F
S11313A080E80E9449000F2EF9EF8F2EF2E09F2E65
S11313B0F02DC4010E946E0080EC0E944900C60119
S11313C00E946E008FEB97E2A9E081509040A0400C
S11313D0E1F700C0000080E80E944900C4010E94B7
S11313E06E0080EC0E9449008CE10E9449008DE06F
S11313F093E00E946E008FE79FE4A2E18150904049
S1131400A040E1F700C00000AB988FED93E9A4E0A1
S113141081509040A040E1F700C00000AB9A80E802
S11314200E944900C8010E946E0080EC0E9449009D
S1131430CE010E946E008FE79AE1A6E081509040B1
S1131440A040E1F700C000008BB380668BBBDC9842
S11314508FEB97E2A9E081509040A040E1F700C0F3
S113146000001BBA8FEF94E3ACE081509040A040A1
S1131470E1F700C00000AB988FED93E9A4E0815040
S11314809040A040E1F700C00000AB9A80E80E94C1
S11314904900C5010E946E0080EC0E944900CE0103
S11314A00E946E008BB380698BBB8BB38F798BBB2F
S11314B08FEB97E2A9E081509040A040E1F700C093
S11314C000001BBA8FE39DE0A3E081509040A04050
S11314D0E1F700C0000081E00E9449000C94CE00B6
S10714E0F894FFCFAA
S11314E457656C636F6D6520546F2044656C68693F
S11314F4002020202020204D4554524F202020201D
S1131504200020202020202052697468616C61200E
S1131514202020200020204D4554524F2053746134
S113152474696F6E20202000202020446F6F722085
S11315346973204F70656E20202020002020202015
S113154420202020202020202020202020202000B3
S11315542020446F6F7220697320436C6F7365207D
S113156420202000204E6578742053746174696FC0
S11315746E2069732000202020526F68696E6920F0
S11315845765737420202000202020526F68696EF0
S113159469205765737420202020200020204D45A5
S11315A454524F2053746174696F6E2020202000BC
S11315B4202020446F6F7220697320636C6F7365FD
S11315C42020202000202020526F68696E69204565
S11315D461737420202000202020526F68696E6992
S11315E420456173742020202020002020202050D6
S11315F46974616D707572612020202000202020A0
S113160420506974616D707572612020202020203F
S11316140020204B6F68617420456E636C617665AD
S113162420200020204B6F68617420456E636C6138
S1131634766520202020002020202020204E2E53B8
S11316442E50202020202020002020202020204E46
S11316542E532E5020202020202020200020204BF8
S1131664657368617620507572616D2020200020B6
S113167420204B657368617620507572616D20205B
S1131684202000204B616E6861697961204E616796
S113169461722020200020204B616E6861697961A9
S11316A4204E616761722020200020202020496E92
S11316B4646572204C6F6B202020200020202020A1
S11316C4496E646572204C6F6B202020202020001A
S11316D4202053686173747269204E6167617220BB
S11316E42000202053686173747269204E6167611D
S11316F47220202020002020506172746170204EDA
S1131704616761722020002020205061727461702E
S1131714204E616761722020202000202020507513
S11317246C62616E67617368202020200020202091
S11317342050756C62616E676173682020202020DC
S1131744002020205469732048617A617269202042
S1131754202000202020205469732048617A61727B
S11317646920202020200020204B6173686D65725D
S113177465204761746520200020204B6173686DE7
S113178465726520476174652020202000547261CD
S1131794696E206973205465726D696E6174656441
S10917A420486572650097
S9030000FC
